:04000000FEEF7FF0A0
:10E4F2000201C9511200016E01C5CBF21200F20EE7
:10E502000301D76F1200000E01010D6F120001C549
:10E512004FF502C550F5120001C54DF502C54EF585
:10E52200120001C54BF502C54CF512000201D8A339
:10E532009DEF72F0A0EF72F0010EA1EF72F0000EEB
:10E542001200010155B7A8EF72F0AAEF72F0ADEF19
:10E5520072F04595AEEF72F045851200015002103F
:10E56200D8B4B6EF72F0B8EF72F0BCEF72F001C53A
:10E5720047F502C548F5120001500210D8B4C4EFA5
:10E5820072F0C6EF72F0CAEF72F001C545F502C52E
:10E5920046F5120001500210D8B4D2EF72F0D4EF57
:10E5A20072F0D8EF72F001C543F502C544F51200CE
:10E5B200026E49EC73F00009D8B4E2EF72F0E4EFB6
:10E5C20072F0DAEF72F002507CEC72F01200026E1E
:10E5D20049EC73F00009D8B4F1EF72F0F3EF72F086
:10E5E200E9EF72F002507CEC72F0120025EC73F04D
:10E5F20021EC77F0F7EC74F080EC72F0C3EC74F07D
:10E6020084EC72F0A5EC73F0120001EE60F1200EC2
:10E61200EE6AE806FDE101EE32F1220EEE6AE8064C
:10E62200FDE10001DDEF73F097EC72F00009D8B460
:10E632001DEF73F01FEF73F023EF73F079EC72F0BC
:10E6420024EF73F0000E1200600E0001AD6F400E59
:10E65200AF6F000EB36F080EB16F000EB06F000EF9
:10E66200AC6F000E0401586F1200260E296E050EC3
:10E672002A6E000E1C6E000E1D6E24C51EF525C5E9
:10E682001FF5290E206E050E216E3CEC74F012006F
:10E69200000E016E0201D8AB51EF73F053EF73F02D
:10E6A2005CEF73F0D3AB58EF73F05AEF73F05CEF9B
:10E6B20073F0010E016E0150120001C543F002C554
:10E6C20044F003C545F0F80E00014117408140B106
:10E6D2006DEF73F06FEF73F068EF73F046C001F502
:10E6E20047C002F51200056E05C5ECF30301F39D68
:10E6F200F381F3B17FEF73F081EF73F07AEF73F090
:10E70200EB51046E036AEA510324016E000E0420E9
:10E71200026E120008BE90EF73F092EF73F098EF62
:10E7220073F007C507F508C508F5A4EF73F007C530
:10E7320009F508C50AF5091E0A1E094A0A2A09C569
:10E7420007F50AC508F51200D69AB790D680000ED2
:10E75200016E000E026E88EC72F0BC90D682000E42
:10E76200016E000E026E8DEC72F0C090D684000E27
:10E77200016E000E026E92EC72F01200010155B7AA
:10E78200C5EF73F0C7EF73F0DCEF73F0030EE8EC44
:10E7920072F05250E8EC72F0522AFC0EE8EC72F081
:10E7A200190E046E5A0E036EB20EE82EFED7032E19
:10E7B200FCD7042EFAD71200F7EC72F0F00E246E9A
:10E7C200FF0E256E36EC73F03FEC78F0050E316EDD
:10E7D2000F0E306EF10EE82EFED7302EFCD7312E02
:10E7E200FAD700001BEC74F090EC74F0F3EF73F0C6
:10E7F200FEEF7FF0010145B501EF74F004EF74F014
:10E80200010E05EF74F0000EFF0A016E014601468B
:10E8120045510118FB0B0118456F290E026E960E29
:10E82200016E7F0EE82EFED7012EFCD7022EFAD7FC
:10E832000000120015EC73F02F6E0A0E2F18D8B4D8
:10E8420025EF74F027EF74F03BEF74F00D0E2F18E4
:10E85200D8B42EEF74F030EF74F03BEF74F02F5019
:10E86200D8B436EF74F038EF74F03BEF74F02F50F9
:10E8720089EC75F012001EC522F51FC523F550EF75
:10E8820074F01CC50CF51DC50DF5220E0E6E050E9D
:10E892000F6E20C510F521C511F502EC79F022C5E5
:10E8A200F6F423C5F7F4F86A0800F5500009D8A475
:10E8B2005DEF74F05FEF74F042EF74F0000E1D6EC6
:10E8C200000E1C6E1200000E076E000E086E000E87
:10E8D200096E01A06FEF74F071EF74F077EF74F0CE
:10E8E200045007260550082206500922D890043603
:10E8F20005360636D8900332023201320150021038
:10E902000310D8A487EF74F089EF74F06AEF74F003
:10E9120007C501F508C502F509C503F512005350F4
:10E92200D8A496EF74F098EF74F09CEF74F0FBECBF
:10E9320073F0C2EF74F05304D8A4A2EF74F0A4EF02
:10E9420074F0A8EF74F0A2EC72F0C2EF74F0020E51
:10E952005318D8A4AFEF74F0B1EF74F0B5EF74F0C0
:10E96200BFEC73F0C2EF74F0030E5318D8A4BCEFDF
:10E9720074F0BEEF74F0C2EF74F0A7EC77F0C2EF60
:10E9820074F01200000E0201C96F000ECB6F000E70
:10E99200CD6F000ECF6F000ED16FB00ED36F800E11
:10E9A200D46F000ED56F8A0ED66F000ED76F2E0E63
:10E9B200D86F000ED96F800EDA6F000EDB6F000E7B
:10E9C200016E000E026EAFEC72F0000E016E000ED0
:10E9D200026EBDEC72F0000E016E000E026ECBEC08
:10E9E20072F0000E4A6E000E496E1200000E030114
:10E9F200F46F440EF56F000EF66F000EF96F000E05
:10EA0200E46F000EE36F000EF76F000EFA6F030E55
:10EA1200F86F000EF06F000EF16F000EF26F010E34
:10EA2200EE6F000EEF6F3C0EEC6F0A0EE76F000EFA
:10EA3200D96F000EDA6F000EDB6F000EDC6F000E76
:10EA4200DF6F000EE06F000E0101106F000E116FFC
:10EA5200000E126FB794B792940E0301F36F120077
:10EA6200000E066E02BE3AEF75F038EF75F040EF19
:10EA720075F0016C021ED8B0022A010E066E04BEA9
:10EA820047EF75F045EF75F04BEF75F0036C041E20
:10EA9200D8B0042A03500410D8B452EF75F054EFE2
:10EAA20075F078EF75F0010E056E5CEF75F0D89099
:10EAB20003360436052A04AE61EF75F063EF75F094
:10EAC20058EF75F00350015C04500258D8A06CEF67
:10EAD20075F06EEF75F072EF75F00350015E045041
:10EAE200025AD89004320332052E63EF75F00650B5
:10EAF200D8B47EEF75F080EF75F084EF75F0016C9D
:10EB0200021ED8B0022A01C501F502C502F51200A3
:10EB12002E6EC8EF75F0000E536ED80E246EFF0EE7
:10EB2200256E36EC73F0E5EF75F001014585010EB7
:10EB3200536E770E246EFF0E256E36EC73F0E5EF02
:10EB420075F001014585020E536E400E246EFF0ED4
:10EB5200256E36EC73F0FD0E246EFE0E256E36EC3D
:10EB620073F0E5EF75F0030E536EBD0E246EFF0ECB
:10EB7200256E36EC73F0B40E246EFE0E256E36EC66
:10EB820073F0E5EF75F03FEC78F0E5EF75F02E509D
:10EB92002C6E2D6A2D50000AD8B4D2EF75F0C4EF56
:10EBA20075F02C50310AD8B48CEF75F0030AD8B442
:10EBB20096EF75F0010AD8B4A2EF75F0070AD8B43F
:10EBC200B4EF75F0C4EF75F01200000E066E04BECD
:10EBD200EFEF75F0EDEF75F0F5EF75F0036C041ED5
:10EBE200D8B0042A010E066E02BEFCEF75F0FAEFF1
:10EBF20075F002EF76F0016C021ED8B0022A010E07
:10EC0200061A000E086E000E076E03500410D8B4E8
:10EC12000DEF76F00FEF76F037EF76F0010E056E1E
:10EC220017EF76F0D89003360436052A04AE1CEFAF
:10EC320076F01EEF76F013EF76F0D89007360836AE
:10EC42000350015C04500258D8A02AEF76F02CEF52
:10EC520076F031EF76F00350015E0450025A0780DD
:10EC6200D89004320332052E1EEF76F00650D8B447
:10EC72003DEF76F03FEF76F043EF76F0076C081E3B
:10EC8200D8B0082A07C501F508C502F512000550DB
:10EC92000610D8B44FEF76F051EF76F05AEF76F0D7
:10ECA20005500610D8A458EF76F05AEF76F05FEFD1
:10ECB20076F00350D9EC72F0ACEF76F020EE0AF069
:10ECC2000550D9260650DA22DE50DE10D8B46CEF99
:10ECD20076F06EEF76F089EF76F020EE0AF00550CE
:10ECE200D9260650DA2210EE03F00550E12606502E
:10ECF200E222DE50E65CE650800A0B6EDE50800AAD
:10ED02000B58D8B087EF76F089EF76F0ACEF76F05B
:10ED120020EE03F00550D9260650DA22DEC407F5AC
:10ED2200DDC408F505C5D9F406C5DAF4DEC409F573
:10ED3200DDC40AF507500924D96E08500A20DA6E9C
:10ED420003C5DFF420EE03F00550D9260650DA227F
:10ED5200DE2A000EDD221200000E086E06BEB6EF9D
:10ED620076F0B4EF76F0BEEF76F0061E051E046C68
:10ED7200000E05220622010E086E03BEC5EF76F0D4
:10ED8200C3EF76F0CDEF76F0031E021E016C000E8B
:10ED920002220322010E081A000E096E000E0A6EEC
:10EDA200000E0B6E045005100610D8B4DBEF76F09F
:10EDB200DDEF76F00CEF77F0010E076EE6EF76F0FE
:10EDC200D890043605360636072A06AEEBEF76F003
:10EDD200EDEF76F0E1EF76F0D89009360A360B3691
:10EDE2000450015C0550025806500358D8A0FCEFAD
:10EDF20076F0FEEF76F005EF77F00450015E0550F5
:10EE0200025A0650035A0980D8900632053204325B
:10EE1200072EEDEF76F00850D8B412EF77F014EF2A
:10EE220077F01AEF77F00B1E0A1E096C000E0A2209
:10EE32000B2209C501F50AC502F50BC503F512003F
:10EE4200000E0101406F000E416F000E426F000E76
:10EE5200436F000E446F000E456F4869DF0E496F25
:10EE62007F0E4A6F4B690F0E4C6FFB0E4D6F040104
:10EE72000069CF0E086F070E106F070E206FF30E9A
:10EE8200286F000E016F000E096F000E116F000E49
:10EE9200196F000E216F080E296F000E026F000E0F
:10EEA2000A6F000E126F000E1A6F000E226F000E14
:10EEB2002A6F03690B697F0E136F1B69070E236F9D
:10EEC2002B6904690C697F0E146F1C690F0E246F85
:10EED2002C69000E0201866F000E876F000E846F90
:10EEE200000E856F000E826F000E836F0C0E746F22
:10EEF200180E0E6F000E0401056F000E066F000E55
:10EF0200076F000E3D6F000E3E6F000E3F6F000E4A
:10EF12000D6F000E0E6F000E0F6F000E156F000EBC
:10EF2200166F000E176F000E1D6F000E1E6F000E83
:10EF32001F6F000E256F000E266F000E276F000E4A
:10EF42002D6F000E2E6F000E2F6F12002A0E016E13
:10EF5200000E026E2C0E036E5EEC73F001C53FF5DF
:10EF620002C540F52E0E016E000E026E2C0E036ECF
:10EF72005EEC73F001C53BF502C53CF52C0E016E4B
:10EF8200000E026E2C0E036E5EEC73F001C53DF5B1
:10EF920002C53EF5010155B7D1EF77F0D3EF77F017
:10EFA2003EEF78F03C0E74EC73F001C541F502C5FA
:10EFB20042F541C501F542C502F5036A3FC504F5B4
:10EFC20040C505F5066A05BE060664EC74F001C587
:10EFD20032F502C533F503C534F532C501F533C543
:10EFE20002F534C503F5000E046E010E056E000E27
:10EFF200066EADEC76F001C532F502C533F503C5F8
:10F0020034F53BC52BF53CC52CF52D6A2CBE2D687D
:10F0120032502B24326E33502C20336E34502D203C
:10F02200346E32C501F533C502F534C503F50A0E57
:10F03200046E000E056E000E066EADEC76F001C594
:10F0420032F502C533F503C534F5A10E246EFF0E69
:10F05200256E32C526F533C527F534C528F536ECBD
:10F0620073F0290E2C6E960E2B6E7F0EE82EFED7B5
:10F072002B2EFCD72C2EFAD700001200050E2B6E79
:10F08200260EE82EFED72B2EFCD700D0BA0E246E09
:10F09200FF0E256E36EC73F0490E246EFE0E256EC1
:10F0A20036EC73F01B0E246EFA0E256E36EC73F0FE
:10F0B200490E246EFE0E256E36EC73F02E0E246E73
:10F0C200F70E256E36EC73F0990E246EF70E256E50
:10F0D20036EC73F0ED0E246EF50E256E36EC73F001
:10F0E200C30E246EF60E256E36EC73F0860E246E79
:10F0F200FA0E256E36EC73F0F10E246EFA0E256EC2
:10F1020036EC73F0320E246EFC0E256E36EC73F084
:10F11200080E246EFD0E256E36EC73F0730E246E0F
:10F12200FD0E256E36EC73F09D0E246EFC0E256EE0
:10F1320036EC73F05C0E246EFB0E256E36EC73F02B
:10F14200C70E246EFB0E256E36EC73F06F0E246E26
:10F15200F80E256E36EC73F0040E246EF80E256E52
:10F1620036EC73F0580E246EF60E256E36EC73F004
:10F17200820E246EF50E256E36EC73F0490E246E67
:10F18200FE0E256E36EC73F0410E246EF40E256EE3
:10F1920036EC73F0170E246EF50E256E36EC73F016
:10F1A200AC0E246EF40E256E36EC73F0DA0E246E7D
:10F1B200F80E256E36EC73F0DE0E246EFD0E256E13
:10F1C20036EC73F0B00E246EF90E256E36EC73F049
:10F1D200410E246EF40E256E36EC73F0450E246E4D
:10F1E200F90E256E36EC73F0410E246EF40E256E88
:10F1F20036EC73F0490E246EFE0E256E36EC73F07B
:10F2020012000EC5D9F40FC5DAF4DEC4F6F4DDC47B
:10F21200F7F4F86A0800F550250AD8A413EF79F03C
:10F2220015EF79F0F2EF79F00EC5D9F40FC5DAF4E3
:10F23200DE2A000EDD22000E366E000E356E35C55A
:10F2420051F5376838680EC5D9F40FC5DAF4DEC453
:10F2520015F5DDC416F515C5F6F416C5F7F4F86A0A
:10F262000800F550640AD8B439EF79F03BEF79F031
:10F272004AEF79F015C5F6F416C5F7F4F86A0800F6
:10F28200F550690AD8A448EF79F04AEF79F0E9EF2E
:10F2920079F010C5D9F411C5DAF4DFC412F5020E03
:10F2A200DE26DFC413F5000EDD2212C5D9F413C524
:10F2B200DAF4DEC417F5DDC418F5010E1524126E5A
:10F2C200000E1620136E0EC5D9F40FC5DAF412C55E
:10F2D200DEF413C5DDF4200E1B6E18BE73EF79F059
:10F2E20076EF79F0010E77EF79F0000E146E1B06BF
:10F2F200600E1B24D96EDA6A050EDA2217C501F5F3
:10F3020018C502F5000E046E0A0E036E31EC75F09C
:10F3120001C507F502C508F58BEC73F00750300FF5
:10F32200DF6E17C501F518C502F5000E046E0A0E50
:10F33200036EE6EC75F001C517F502C518F5175016
:10F342001810D8B4A7EF79F0A9EF79F0B1EF79F0FE
:10F352001B50D8A4AFEF79F0B1EF79F078EF79F0E4
:10F362001B50D8B4B7EF79F0B9EF79F0DEEF79F04E
:10F372001450D8B4BFEF79F0C1EF79F0DEEF79F035
:10F382001B06600E1B24D96EDA6A050EDA222D0ED8
:10F39200DF6EDEEF79F0600E1B24D96EDA6A050E9D
:10F3A200DA22DF50126E1250036E046A0CC505F5A4
:10F3B2000DC506F548EC76F01B2A200E1B18D8A4C2
:10F3C200E5EF79F0E7EF79F0CCEF79F007EF7AF03B
:10F3D2000EC5D9F40FC5DAF4DE2A000EDD2207EFDE
:10F3E2007AF00EC5D9F40FC5DAF4DEC4F6F4DDC442
:10F3F200F7F4F86A0800F550036E046A0CC505F5C7
:10F402000DC506F548EC76F0E9EF79F012000086BA
:10F41200E90000F2E4F8E42EE592E60000000000C4
:10F4220000000000000000000000000000000000DA
:10F43200000000000000005EE57AE596E500002A83
:10F4420020202020202020202020202020202020BA
:10F4520020202020202020202020202020202020AA
:10F46200202020202020202020202020202020209A
:10F47200202020202020202020202020202020208A
:10F48200202020202020202020202020202020207A
:10F49200202020202020202020202020202020206A
:10F4A2002020202020202A0D0A002A202027312770
:10F4B200202D2044656661756C742070726F6772CE
:10F4C200616D3B20426C696E6B696E67204C4544EE
:10F4D200202020202020202020202020202020202A
:10F4E200202020202020202020202020202020201A
:10F4F200202020202020202020202020202020200A
:10F5020020202020202020202020202020202020F9
:10F51200202A0D0A002A202D507265737320612063
:10F522006B657920636F72726573706F6E64696E5A
:10F532006720746F20612070726F6772616D3A206C
:10F5420020202020202020202020202020202020B9
:10F5520020202020202020202020202020202020A9
:10F562002020202020202020202020202020202099
:10F572002020202020202020202020202A0D0A00C8
:10F582002A20202020202020204D4D4D4D4D4D4D34
:10F592004D4D4E6D646879797973737379796868C2
:10F5A200646D4D4D4D4D4D4D4D4D4D4D2020202006
:10F5B2002020202020202020202020202020202049
:10F5C2002020202020202020202020202020202039
:10F5D2002020202020202020202020202020202029
:10F5E200202020202020202A0D0A002A202020204E
:10F5F200202020204D4D4D4D6479737373737373C6
:10F602007373737373737373737373737373794EE7
:10F612004D4D4D4D4D4D4D202020202020202020AD
:10F6220020202020202020202020202020202020D8
:10F6320020202020202020202020202020202020C8
:10F6420020202020202020202020202020202020B8
:10F6520020202A0D0A002A20202020202020204DB0
:10F662004D4D4D4D4D4E6479737373737373737354
:10F6720073737373737373737379644E4D4D4D4D1E
:10F682004D4D20202020202020202020202020201E
:10F692002020202020202020202020202020202068
:10F6A2002020202020202020202020202020202058
:10F6B200202020202020202020202020202A0D0A67
:10F6C200002A20202020202020204D4D6D797373A8
:10F6D2007373736F2D602E6F737373737373736FA2
:10F6E2002D2E2D6F73796D4D4D4D4D4D4D2020209A
:10F6F2002020202020202020202020202020202008
:10F7020020202020202020202020202020202020F7
:10F7120020202020202020202020202020202020E7
:10F7220020202020202020202A0D0A002A2020200C
:10F7320020202020204D4D4D4D4D4D4D4D4D4E64C0
:10F74200646879737979797973797968646D4D4DE3
:10F752004E4E4E4D4D4D4D4D20202020202020203C
:10F762002020202020202020202020202020202097
:10F772002020202020202020202020202020202087
:10F782002020202020202020202020202020202077
:10F792002020202A0D0A002A20202020202020209C
:10F7A2004D4D4D4D4D4D6D6873737373737373731C
:10F7B200737373737373737373684D4E6D6D4D4DC5
:10F7C2004D4D4D20202020202020202020202020B0
:10F7D2002020202020202020202020202020202027
:10F7E2002020202020202020202020202020202017
:10F7F20020202020202020202020202020202A0D10
:10F802000A002A20202020202020204D4D4D4D6826
:10F8120079737373737373737373737373737373B0
:10F82200737373737373736F2B6D4D4D4D4D202036
:10F8320020202020202020202020202020202020C6
:10F8420020202020202020202020202020202020B6
:10F8520020202020202020202020202020202020A6
:10F862002020202020202020202A0D0A002A2020CB
:10F872002020202020204D4D6D3A202D6F73737370
:10F8820073737373736F2D602E2B73737373737330
:10F89200732B6020202B4E4D4D2020202020202035
:10F8A2002020202020202020202020202020202056
:10F8B2002020202020202020202020202020202046
:10F8C2002020202020202020202020202020202036
:10F8D200202020202A0D0A002A2020273227202D2E
:10F8E200204C4544207475726E73206F6E207768C9
:10F8F200696C6520627574746F6E20697320707212
:10F902006573736564202020202020202020202081
:10F9120020202020202020202020202020202020E5
:10F9220020202020202020202020202020202020D5
:10F932002020202020202020202020202020202ABB
:10F942000D0A002A202D20507265737320616E7992
:10F95200206F74686572206B657920746F207669F8
:10F96200657720746865206D656E752061676169D1
:10F972006E2E202020202020202020202020202029
:10F982002020202020202020202020202020202075
:10F992002020202020202020202020202020202065
:10F9A200202020202020202020202A0D0A002A208A
:10F9B20020273427202D2054656D7065726174757F
:10F9C20072652073656E736F72206D6561737572F7
:10F9D200656D656E742074616B656E2077697468FD
:10F9E20020657665727920627574746F6E2070720C
:10F9F200657373202020202020202020202020201A
:10FA020020202020202020202020202020202020F4
:10FA120020202020202A0D0A002A20202020202019
:10FA220020202020202020202020202020202020D4
:10FA3200204F7574206F662074686520626F78208D
:10FA42006170706C69636174696F6E20666F722099
:10FA52005049433138463536513234204375726944
:10FA62006F73697479204E616E6F202020202020F0
:10FA72002020202020202020202020202020202084
:10FA82002A0D0A002A20202020202020204D6473E5
:10FA920073737373732F60202020602F73737373DB
:10FAA200733A20202020602B7373644D4D4D4D4DD1
:10FAB200202020202020205F5F20205F5F205F2009
:10FAC2002020202020202020202020202020202034
:10FAD200202020205F20202020205F2020202020A6
:10FAE20020202020202020202020202A0D0A002A49
:10FAF20020202020202020206D7373737373732FB6
:10FB0200202020202020202D7373732D20202020E0
:10FB12002020202F7373794E4D4D4D202020202020
:10FB2200207C20205C2F2020285F292020202020DC
:10FB320020202020202020202020202020207C2067
:10FB42007C202020285F2920202020202020202007
:10FB52002020202020202A0D0A002A2020202020D8
:10FB62002020206D602020202020202D6F737373B1
:10FB72002F202020202020202D73736F2D20202065
:10FB8200202020202F4D2020202020202020202037
:10FB92002020202020202020202020202020202063
:10FBA2002020202020202020202020202020202053
:10FBB200207C207C2020202020202020202020208B
:10FBC200202A0D0A002A20202020202020204D68F3
:10FBD20060202020602F7373737373732B60202057
:10FBE20020203A73737373732F20202020202D4E10
:10FBF2004D202020202020202020202020202020D6
:10FC020020202020202020202020202020202020F2
:10FC12002020202020202020202020207C5F7C20EB
:10FC22002020202020202020202020202A0D0A0011
:10FC32002A202020202020202079737373736F7371
:10FC42006F2D202020202020202E6F736F2E202049
:10FC520020202020202D7373796D4D4D20202020EF
:10FC620020207C205C20202F207C5F20205F5F5F93
:10FC7200205F205F5F205F5F5F2020205F5F5F7CEF
:10FC8200207C5F5F20205F205F205F5F202020209C
:10FC9200202020202020202A0D0A002A2020202097
:10FCA20020202020793A202020202020602B736FF2
:10FCB2002D202020202020202E6F732B602020203A
:10FCC200202020203A73682020202020207C5F7C86
:10FCD20020207C5F7C5F7C5C5F5F5F7C5F7C2020A0
:10FCE2005C5F5F5F2F205C5F5F5F7C5F7C207C5F7F
:10FCF2007C5F7C202E5F5F2F202020202020202070
:10FD020020202A0D0A002A202020202020202079CD
:10FD120073736F2D202D73732F60202020202020DD
:10FD2200602F73732D202020202020202E6F7373CC
:10FD3200644D2020202020207C207C5C2F7C207C95
:10FD4200207C2F205F5F7C20275F5F2F205F205C5D
:10FD5200202F205F5F7C20275F205C7C207C202777
:10FD62005F205C202020202020202020202A0D0A35
:10FD7200002A202020202020202079732B602020A0
:10FD8200202E6F732B60202020202020203A7373B6
:10FD92002F60202020202020602F737368202020D5
:10FDA2002020207C207C20207C207C207C20285F3E
:10FDB2005F7C207C207C20285F29207C20285F5FBC
:10FDC2007C207C207C207C207C207C5F29207C2065
:10FDD20020202020202020202A0D0A002A2020274F
:10FDE2003327202D20416E20617363656E64696E36
:10FDF200672072616D702076697369626C65206933
:10FE02006E204D504C41422044617461205669730A
:10FE120075616C697A65722073656E74207468729C
:10FE22006F7567682055415254207768696C652068
:10FE3200627574746F6E2069732070726573736576
:10FE42006420202A0D0A002A2A2A2A2A2A2A2A2A51
:10FE52002A2A2A2A2A2A2A2A2A2A2A2A2A2A2A2A00
:10FE62002A2A2A2A2A2A2A2A2A2A2A2A2A2A2A2AF0
:10FE72002A2A2A2A2A2A2A2A2A2A2A2A2A2A2A2AE0
:10FE82002A2A2A2A2A2A2A2A2A2A2A2A2A2A2A2AD0
:10FE92002A2A2A2A2A2A2A2A2A2A2A2A2A2A2A2AC0
:10FEA2002A2A2A2A2A2A2A2A2A2A2A2A2A2A2A0DCD
:10FEB2000A0054454D502073656E736F72206D6554
:10FEC20061737572656D656E7420697320696E6405
:10FED20069636174697665206F6620746865204481
:10FEE200494520616E64206E6F7420616D626965A0
:10FEF2006E742074656D702E0D0A00506C6561730E
:10FF02006520726566657220746F20524541444DCA
:10FF12004520696620796F757220686176696E671F
:10FF22002074726F75626C65732073657474696E88
:10FF3200672074686520445652542E0D0A004150C1
:10FF4200504C49434154494F4E207072657373209F
:10FF5200627574746F6E20746F2073656E642061B5
:10FF62002072616D70207468726F756768205541E8
:10FF720052540D0A004150504C49434154494F4E8E
:10FF820020707265737320627574746F6E20746F63
:10FF9200207475726E206F6E204C45440D0A005419
:10FFA200656D70206F6620746865206469652069DC
:10FFB2006E20433A202564200D0A004150504C49DE
:10FFC200434154494F4E2054454D502073656E7342
:10FFD2006F72200D0A004150504C49434154494F21
:10FFE2004E20626C696E6B204C45440D0A001B5B0F
:0EFFF200313B31481B5B324A000006EF73F0D2
:020000040030CA
:0700000086FFF7FF9FFF7F61
:03000800FFFFFFF8
:02001800FFFFE8
:01001C00FFE4
:00000001FF
